{
  "_format": "hh-sol-artifact-1",
  "contractName": "Nft",
  "sourceName": "contracts/Nft.sol",
  "abi": [
    {
      "inputs": [],
      "stateMutability": "nonpayable",
      "type": "constructor"
    },
    {
      "anonymous": false,
      "inputs": [
        {
          "indexed": true,
          "internalType": "address",
          "name": "owner",
          "type": "address"
        },
        {
          "indexed": true,
          "internalType": "address",
          "name": "approved",
          "type": "address"
        },
        {
          "indexed": true,
          "internalType": "uint256",
          "name": "tokenId",
          "type": "uint256"
        }
      ],
      "name": "Approval",
      "type": "event"
    },
    {
      "anonymous": false,
      "inputs": [
        {
          "indexed": true,
          "internalType": "address",
          "name": "owner",
          "type": "address"
        },
        {
          "indexed": true,
          "internalType": "address",
          "name": "operator",
          "type": "address"
        },
        {
          "indexed": false,
          "internalType": "bool",
          "name": "approved",
          "type": "bool"
        }
      ],
      "name": "ApprovalForAll",
      "type": "event"
    },
    {
      "anonymous": false,
      "inputs": [
        {
          "indexed": true,
          "internalType": "address",
          "name": "from",
          "type": "address"
        },
        {
          "indexed": true,
          "internalType": "address",
          "name": "to",
          "type": "address"
        },
        {
          "indexed": true,
          "internalType": "uint256",
          "name": "tokenId",
          "type": "uint256"
        }
      ],
      "name": "Transfer",
      "type": "event"
    },
    {
      "inputs": [
        {
          "internalType": "address",
          "name": "to",
          "type": "address"
        },
        {
          "internalType": "uint256",
          "name": "tokenId",
          "type": "uint256"
        }
      ],
      "name": "approve",
      "outputs": [],
      "stateMutability": "nonpayable",
      "type": "function"
    },
    {
      "inputs": [
        {
          "internalType": "address",
          "name": "owner",
          "type": "address"
        }
      ],
      "name": "balanceOf",
      "outputs": [
        {
          "internalType": "uint256",
          "name": "",
          "type": "uint256"
        }
      ],
      "stateMutability": "view",
      "type": "function"
    },
    {
      "inputs": [
        {
          "internalType": "uint256",
          "name": "tokenId",
          "type": "uint256"
        }
      ],
      "name": "getApproved",
      "outputs": [
        {
          "internalType": "address",
          "name": "",
          "type": "address"
        }
      ],
      "stateMutability": "view",
      "type": "function"
    },
    {
      "inputs": [
        {
          "internalType": "address",
          "name": "owner",
          "type": "address"
        },
        {
          "internalType": "address",
          "name": "operator",
          "type": "address"
        }
      ],
      "name": "isApprovedForAll",
      "outputs": [
        {
          "internalType": "bool",
          "name": "",
          "type": "bool"
        }
      ],
      "stateMutability": "view",
      "type": "function"
    },
    {
      "inputs": [
        {
          "internalType": "string",
          "name": "_tokenUri",
          "type": "string"
        }
      ],
      "name": "mint",
      "outputs": [],
      "stateMutability": "payable",
      "type": "function"
    },
    {
      "inputs": [],
      "name": "name",
      "outputs": [
        {
          "internalType": "string",
          "name": "",
          "type": "string"
        }
      ],
      "stateMutability": "view",
      "type": "function"
    },
    {
      "inputs": [
        {
          "internalType": "uint256",
          "name": "tokenId",
          "type": "uint256"
        }
      ],
      "name": "ownerOf",
      "outputs": [
        {
          "internalType": "address",
          "name": "",
          "type": "address"
        }
      ],
      "stateMutability": "view",
      "type": "function"
    },
    {
      "inputs": [
        {
          "internalType": "address",
          "name": "from",
          "type": "address"
        },
        {
          "internalType": "address",
          "name": "to",
          "type": "address"
        },
        {
          "internalType": "uint256",
          "name": "tokenId",
          "type": "uint256"
        }
      ],
      "name": "safeTransferFrom",
      "outputs": [],
      "stateMutability": "nonpayable",
      "type": "function"
    },
    {
      "inputs": [
        {
          "internalType": "address",
          "name": "from",
          "type": "address"
        },
        {
          "internalType": "address",
          "name": "to",
          "type": "address"
        },
        {
          "internalType": "uint256",
          "name": "tokenId",
          "type": "uint256"
        },
        {
          "internalType": "bytes",
          "name": "data",
          "type": "bytes"
        }
      ],
      "name": "safeTransferFrom",
      "outputs": [],
      "stateMutability": "nonpayable",
      "type": "function"
    },
    {
      "inputs": [
        {
          "internalType": "address",
          "name": "operator",
          "type": "address"
        },
        {
          "internalType": "bool",
          "name": "approved",
          "type": "bool"
        }
      ],
      "name": "setApprovalForAll",
      "outputs": [],
      "stateMutability": "nonpayable",
      "type": "function"
    },
    {
      "inputs": [
        {
          "internalType": "bytes4",
          "name": "interfaceId",
          "type": "bytes4"
        }
      ],
      "name": "supportsInterface",
      "outputs": [
        {
          "internalType": "bool",
          "name": "",
          "type": "bool"
        }
      ],
      "stateMutability": "view",
      "type": "function"
    },
    {
      "inputs": [],
      "name": "symbol",
      "outputs": [
        {
          "internalType": "string",
          "name": "",
          "type": "string"
        }
      ],
      "stateMutability": "view",
      "type": "function"
    },
    {
      "inputs": [],
      "name": "tokenCounter",
      "outputs": [
        {
          "internalType": "uint256",
          "name": "",
          "type": "uint256"
        }
      ],
      "stateMutability": "view",
      "type": "function"
    },
    {
      "inputs": [
        {
          "internalType": "uint256",
          "name": "tokenId",
          "type": "uint256"
        }
      ],
      "name": "tokenURI",
      "outputs": [
        {
          "internalType": "string",
          "name": "",
          "type": "string"
        }
      ],
      "stateMutability": "view",
      "type": "function"
    },
    {
      "inputs": [
        {
          "internalType": "address",
          "name": "from",
          "type": "address"
        },
        {
          "internalType": "address",
          "name": "to",
          "type": "address"
        },
        {
          "internalType": "uint256",
          "name": "tokenId",
          "type": "uint256"
        }
      ],
      "name": "transferFrom",
      "outputs": [],
      "stateMutability": "nonpayable",
      "type": "function"
    }
  ],
  "bytecode": "0x60806040523480156200001157600080fd5b506040518060400160405280600b81526020017f756c74696d6174654469670000000000000000000000000000000000000000008152506040518060400160405280600281526020017f554400000000000000000000000000000000000000000000000000000000000081525081600090816200008f91906200032c565b508060019081620000a191906200032c565b505050600060078190555062000413565b600081519050919050565b7f4e487b7100000000000000000000000000000000000000000000000000000000600052604160045260246000fd5b7f4e487b7100000000000000000000000000000000000000000000000000000000600052602260045260246000fd5b600060028204905060018216806200013457607f821691505b6020821081036200014a5762000149620000ec565b5b50919050565b60008190508160005260206000209050919050565b60006020601f8301049050919050565b600082821b905092915050565b600060088302620001b47fffffffffffffffffffffffffffffffffffffffffffffffffffffffffffffffff8262000175565b620001c0868362000175565b95508019841693508086168417925050509392505050565b6000819050919050565b6000819050919050565b60006200020d620002076200020184620001d8565b620001e2565b620001d8565b9050919050565b6000819050919050565b6200022983620001ec565b62000241620002388262000214565b84845462000182565b825550505050565b600090565b6200025862000249565b620002658184846200021e565b505050565b5b818110156200028d57620002816000826200024e565b6001810190506200026b565b5050565b601f821115620002dc57620002a68162000150565b620002b18462000165565b81016020851015620002c1578190505b620002d9620002d08562000165565b8301826200026a565b50505b505050565b600082821c905092915050565b60006200030160001984600802620002e1565b1980831691505092915050565b60006200031c8383620002ee565b9150826002028217905092915050565b6200033782620000b2565b67ffffffffffffffff811115620003535762000352620000bd565b5b6200035f82546200011b565b6200036c82828562000291565b600060209050601f831160018114620003a457600084156200038f578287015190505b6200039b85826200030e565b8655506200040b565b601f198416620003b48662000150565b60005b82811015620003de57848901518255600182019150602085019450602081019050620003b7565b86831015620003fe5784890151620003fa601f891682620002ee565b8355505b6001600288020188555050505b505050505050565b612ba980620004236000396000f3fe6080604052600436106100e85760003560e01c806370a082311161008a578063c87b56dd11610059578063c87b56dd14610304578063d082e38114610341578063d85d3d271461036c578063e985e9c514610388576100e8565b806370a082311461024a57806395d89b4114610287578063a22cb465146102b2578063b88d4fde146102db576100e8565b8063095ea7b3116100c6578063095ea7b31461019257806323b872dd146101bb57806342842e0e146101e45780636352211e1461020d576100e8565b806301ffc9a7146100ed57806306fdde031461012a578063081812fc14610155575b600080fd5b3480156100f957600080fd5b50610114600480360381019061010f9190611a48565b6103c5565b6040516101219190611a90565b60405180910390f35b34801561013657600080fd5b5061013f6104a7565b60405161014c9190611b3b565b60405180910390f35b34801561016157600080fd5b5061017c60048036038101906101779190611b93565b610539565b6040516101899190611c01565b60405180910390f35b34801561019e57600080fd5b506101b960048036038101906101b49190611c48565b61057f565b005b3480156101c757600080fd5b506101e260048036038101906101dd9190611c88565b610696565b005b3480156101f057600080fd5b5061020b60048036038101906102069190611c88565b6106f6565b005b34801561021957600080fd5b50610234600480360381019061022f9190611b93565b610716565b6040516102419190611c01565b60405180910390f35b34801561025657600080fd5b50610271600480360381019061026c9190611cdb565b61079c565b60405161027e9190611d17565b60405180910390f35b34801561029357600080fd5b5061029c610853565b6040516102a99190611b3b565b60405180910390f35b3480156102be57600080fd5b506102d960048036038101906102d49190611d5e565b6108e5565b005b3480156102e757600080fd5b5061030260048036038101906102fd9190611ed3565b6108fb565b005b34801561031057600080fd5b5061032b60048036038101906103269190611b93565b61095d565b6040516103389190611b3b565b60405180910390f35b34801561034d57600080fd5b50610356610a6f565b6040516103639190611d17565b60405180910390f35b61038660048036038101906103819190611ff7565b610a75565b005b34801561039457600080fd5b506103af60048036038101906103aa9190612040565b610aa5565b6040516103bc9190611a90565b60405180910390f35b60007f80ac58cd000000000000000000000000000000000000000000000000000000007bffffffffffffffffffffffffffffffffffffffffffffffffffffffff1916827bffffffffffffffffffffffffffffffffffffffffffffffffffffffff1916148061049057507f5b5e139f000000000000000000000000000000000000000000000000000000007bffffffffffffffffffffffffffffffffffffffffffffffffffffffff1916827bffffffffffffffffffffffffffffffffffffffffffffffffffffffff1916145b806104a0575061049f82610b39565b5b9050919050565b6060600080546104b6906120af565b80601f01602080910402602001604051908101604052809291908181526020018280546104e2906120af565b801561052f5780601f106105045761010080835404028352916020019161052f565b820191906000526020600020905b81548152906001019060200180831161051257829003601f168201915b5050505050905090565b600061054482610ba3565b6004600083815260200190815260200160002060009054906101000a900473ffffffffffffffffffffffffffffffffffffffff169050919050565b600061058a82610716565b90508073ffffffffffffffffffffffffffffffffffffffff168373ffffffffffffffffffffffffffffffffffffffff16036105fa576040517f08c379a00000000000000000000000000000000000000000000000000000000081526004016105f190612152565b60405180910390fd5b8073ffffffffffffffffffffffffffffffffffffffff16610619610bee565b73ffffffffffffffffffffffffffffffffffffffff161480610648575061064781610642610bee565b610aa5565b5b610687576040517f08c379a000000000000000000000000000000000000000000000000000000000815260040161067e906121e4565b60405180910390fd5b6106918383610bf6565b505050565b6106a76106a1610bee565b82610caf565b6106e6576040517f08c379a00000000000000000000000000000000000000000000000000000000081526004016106dd90612276565b60405180910390fd5b6106f1838383610d44565b505050565b610711838383604051806020016040528060008152506108fb565b505050565b6000806107228361103d565b9050600073ffffffffffffffffffffffffffffffffffffffff168173ffffffffffffffffffffffffffffffffffffffff1603610793576040517f08c379a000000000000000000000000000000000000000000000000000000000815260040161078a906122e2565b60405180910390fd5b80915050919050565b60008073ffffffffffffffffffffffffffffffffffffffff168273ffffffffffffffffffffffffffffffffffffffff160361080c576040517f08c379a000000000000000000000000000000000000000000000000000000000815260040161080390612374565b60405180910390fd5b600360008373ffffffffffffffffffffffffffffffffffffffff1673ffffffffffffffffffffffffffffffffffffffff168152602001908152602001600020549050919050565b606060018054610862906120af565b80601f016020809104026020016040519081016040528092919081815260200182805461088e906120af565b80156108db5780601f106108b0576101008083540402835291602001916108db565b820191906000526020600020905b8154815290600101906020018083116108be57829003601f168201915b5050505050905090565b6108f76108f0610bee565b838361107a565b5050565b61090c610906610bee565b83610caf565b61094b576040517f08c379a000000000000000000000000000000000000000000000000000000000815260040161094290612276565b60405180910390fd5b610957848484846111e6565b50505050565b606061096882610ba3565b6000600660008481526020019081526020016000208054610988906120af565b80601f01602080910402602001604051908101604052809291908181526020018280546109b4906120af565b8015610a015780601f106109d657610100808354040283529160200191610a01565b820191906000526020600020905b8154815290600101906020018083116109e457829003601f168201915b505050505090506000610a12611242565b90506000815103610a27578192505050610a6a565b600082511115610a5c578082604051602001610a449291906123d0565b60405160208183030381529060405292505050610a6a565b610a6584611259565b925050505b919050565b60075481565b610a81336007546112c1565b610a8d600754826112df565b6001600754610a9c9190612423565b60078190555050565b6000600560008473ffffffffffffffffffffffffffffffffffffffff1673ffffffffffffffffffffffffffffffffffffffff16815260200190815260200160002060008373ffffffffffffffffffffffffffffffffffffffff1673ffffffffffffffffffffffffffffffffffffffff16815260200190815260200160002060009054906101000a900460ff16905092915050565b60007f01ffc9a7000000000000000000000000000000000000000000000000000000007bffffffffffffffffffffffffffffffffffffffffffffffffffffffff1916827bffffffffffffffffffffffffffffffffffffffffffffffffffffffff1916149050919050565b610bac8161134c565b610beb576040517f08c379a0000000000000000000000000000000000000000000000000000000008152600401610be2906122e2565b60405180910390fd5b50565b600033905090565b816004600083815260200190815260200160002060006101000a81548173ffffffffffffffffffffffffffffffffffffffff021916908373ffffffffffffffffffffffffffffffffffffffff160217905550808273ffffffffffffffffffffffffffffffffffffffff16610c6983610716565b73ffffffffffffffffffffffffffffffffffffffff167f8c5be1e5ebec7d5bd14f71427d1e84f3dd0314c0f7b2291e5b200ac8c7c3b92560405160405180910390a45050565b600080610cbb83610716565b90508073ffffffffffffffffffffffffffffffffffffffff168473ffffffffffffffffffffffffffffffffffffffff161480610cfd5750610cfc8185610aa5565b5b80610d3b57508373ffffffffffffffffffffffffffffffffffffffff16610d2384610539565b73ffffffffffffffffffffffffffffffffffffffff16145b91505092915050565b8273ffffffffffffffffffffffffffffffffffffffff16610d6482610716565b73ffffffffffffffffffffffffffffffffffffffff1614610dba576040517f08c379a0000000000000000000000000000000000000000000000000000000008152600401610db1906124c9565b60405180910390fd5b600073ffffffffffffffffffffffffffffffffffffffff168273ffffffffffffffffffffffffffffffffffffffff1603610e29576040517f08c379a0000000000000000000000000000000000000000000000000000000008152600401610e209061255b565b60405180910390fd5b610e36838383600161138d565b8273ffffffffffffffffffffffffffffffffffffffff16610e5682610716565b73ffffffffffffffffffffffffffffffffffffffff1614610eac576040517f08c379a0000000000000000000000000000000000000000000000000000000008152600401610ea3906124c9565b60405180910390fd5b6004600082815260200190815260200160002060006101000a81549073ffffffffffffffffffffffffffffffffffffffff02191690556001600360008573ffffffffffffffffffffffffffffffffffffffff1673ffffffffffffffffffffffffffffffffffffffff168152602001908152602001600020600082825403925050819055506001600360008473ffffffffffffffffffffffffffffffffffffffff1673ffffffffffffffffffffffffffffffffffffffff16815260200190815260200160002060008282540192505081905550816002600083815260200190815260200160002060006101000a81548173ffffffffffffffffffffffffffffffffffffffff021916908373ffffffffffffffffffffffffffffffffffffffff160217905550808273ffffffffffffffffffffffffffffffffffffffff168473ffffffffffffffffffffffffffffffffffffffff167fddf252ad1be2c89b69c2b068fc378daa952ba7f163c4a11628f55a4df523b3ef60405160405180910390a46110388383836001611393565b505050565b60006002600083815260200190815260200160002060009054906101000a900473ffffffffffffffffffffffffffffffffffffffff169050919050565b8173ffffffffffffffffffffffffffffffffffffffff168373ffffffffffffffffffffffffffffffffffffffff16036110e8576040517f08c379a00000000000000000000000000000000000000000000000000000000081526004016110df906125c7565b60405180910390fd5b80600560008573ffffffffffffffffffffffffffffffffffffffff1673ffffffffffffffffffffffffffffffffffffffff16815260200190815260200160002060008473ffffffffffffffffffffffffffffffffffffffff1673ffffffffffffffffffffffffffffffffffffffff16815260200190815260200160002060006101000a81548160ff0219169083151502179055508173ffffffffffffffffffffffffffffffffffffffff168373ffffffffffffffffffffffffffffffffffffffff167f17307eab39ab6107e8899845ad3d59bd9653f200f220920489ca2b5937696c31836040516111d99190611a90565b60405180910390a3505050565b6111f1848484610d44565b6111fd84848484611399565b61123c576040517f08c379a000000000000000000000000000000000000000000000000000000000815260040161123390612659565b60405180910390fd5b50505050565b606060405180602001604052806000815250905090565b606061126482610ba3565b600061126e611242565b9050600081511161128e57604051806020016040528060008152506112b9565b8061129884611520565b6040516020016112a99291906123d0565b6040516020818303038152906040525b915050919050565b6112db8282604051806020016040528060008152506115ee565b5050565b6112e88261134c565b611327576040517f08c379a000000000000000000000000000000000000000000000000000000000815260040161131e906126eb565b60405180910390fd5b8060066000848152602001908152602001600020908161134791906128b7565b505050565b60008073ffffffffffffffffffffffffffffffffffffffff1661136e8361103d565b73ffffffffffffffffffffffffffffffffffffffff1614159050919050565b50505050565b50505050565b60006113ba8473ffffffffffffffffffffffffffffffffffffffff16611649565b15611513578373ffffffffffffffffffffffffffffffffffffffff1663150b7a026113e3610bee565b8786866040518563ffffffff1660e01b815260040161140594939291906129de565b6020604051808303816000875af192505050801561144157506040513d601f19601f8201168201806040525081019061143e9190612a3f565b60015b6114c3573d8060008114611471576040519150601f19603f3d011682016040523d82523d6000602084013e611476565b606091505b5060008151036114bb576040517f08c379a00000000000000000000000000000000000000000000000000000000081526004016114b290612659565b60405180910390fd5b805181602001fd5b63150b7a0260e01b7bffffffffffffffffffffffffffffffffffffffffffffffffffffffff1916817bffffffffffffffffffffffffffffffffffffffffffffffffffffffff191614915050611518565b600190505b949350505050565b60606000600161152f8461166c565b01905060008167ffffffffffffffff81111561154e5761154d611da8565b5b6040519080825280601f01601f1916602001820160405280156115805781602001600182028036833780820191505090505b509050600082602001820190505b6001156115e3578080600190039150507f3031323334353637383961626364656600000000000000000000000000000000600a86061a8153600a85816115d7576115d6612a6c565b5b0494506000850361158e575b819350505050919050565b6115f883836117bf565b6116056000848484611399565b611644576040517f08c379a000000000000000000000000000000000000000000000000000000000815260040161163b90612659565b60405180910390fd5b505050565b6000808273ffffffffffffffffffffffffffffffffffffffff163b119050919050565b600080600090507a184f03e93ff9f4daa797ed6e38ed64bf6a1f01000000000000000083106116ca577a184f03e93ff9f4daa797ed6e38ed64bf6a1f01000000000000000083816116c0576116bf612a6c565b5b0492506040810190505b6d04ee2d6d415b85acef81000000008310611707576d04ee2d6d415b85acef810000000083816116fd576116fc612a6c565b5b0492506020810190505b662386f26fc10000831061173657662386f26fc10000838161172c5761172b612a6c565b5b0492506010810190505b6305f5e100831061175f576305f5e100838161175557611754612a6c565b5b0492506008810190505b612710831061178457612710838161177a57611779612a6c565b5b0492506004810190505b606483106117a7576064838161179d5761179c612a6c565b5b0492506002810190505b600a83106117b6576001810190505b80915050919050565b600073ffffffffffffffffffffffffffffffffffffffff168273ffffffffffffffffffffffffffffffffffffffff160361182e576040517f08c379a000000000000000000000000000000000000000000000000000000000815260040161182590612ae7565b60405180910390fd5b6118378161134c565b15611877576040517f08c379a000000000000000000000000000000000000000000000000000000000815260040161186e90612b53565b60405180910390fd5b61188560008383600161138d565b61188e8161134c565b156118ce576040517f08c379a00000000000000000000000000000000000000000000000000000000081526004016118c590612b53565b60405180910390fd5b6001600360008473ffffffffffffffffffffffffffffffffffffffff1673ffffffffffffffffffffffffffffffffffffffff16815260200190815260200160002060008282540192505081905550816002600083815260200190815260200160002060006101000a81548173ffffffffffffffffffffffffffffffffffffffff021916908373ffffffffffffffffffffffffffffffffffffffff160217905550808273ffffffffffffffffffffffffffffffffffffffff16600073ffffffffffffffffffffffffffffffffffffffff167fddf252ad1be2c89b69c2b068fc378daa952ba7f163c4a11628f55a4df523b3ef60405160405180910390a46119d8600083836001611393565b5050565b6000604051905090565b600080fd5b600080fd5b60007fffffffff0000000000000000000000000000000000000000000000000000000082169050919050565b611a25816119f0565b8114611a3057600080fd5b50565b600081359050611a4281611a1c565b92915050565b600060208284031215611a5e57611a5d6119e6565b5b6000611a6c84828501611a33565b91505092915050565b60008115159050919050565b611a8a81611a75565b82525050565b6000602082019050611aa56000830184611a81565b92915050565b600081519050919050565b600082825260208201905092915050565b60005b83811015611ae5578082015181840152602081019050611aca565b60008484015250505050565b6000601f19601f8301169050919050565b6000611b0d82611aab565b611b178185611ab6565b9350611b27818560208601611ac7565b611b3081611af1565b840191505092915050565b60006020820190508181036000830152611b558184611b02565b905092915050565b6000819050919050565b611b7081611b5d565b8114611b7b57600080fd5b50565b600081359050611b8d81611b67565b92915050565b600060208284031215611ba957611ba86119e6565b5b6000611bb784828501611b7e565b91505092915050565b600073ffffffffffffffffffffffffffffffffffffffff82169050919050565b6000611beb82611bc0565b9050919050565b611bfb81611be0565b82525050565b6000602082019050611c166000830184611bf2565b92915050565b611c2581611be0565b8114611c3057600080fd5b50565b600081359050611c4281611c1c565b92915050565b60008060408385031215611c5f57611c5e6119e6565b5b6000611c6d85828601611c33565b9250506020611c7e85828601611b7e565b9150509250929050565b600080600060608486031215611ca157611ca06119e6565b5b6000611caf86828701611c33565b9350506020611cc086828701611c33565b9250506040611cd186828701611b7e565b9150509250925092565b600060208284031215611cf157611cf06119e6565b5b6000611cff84828501611c33565b91505092915050565b611d1181611b5d565b82525050565b6000602082019050611d2c6000830184611d08565b92915050565b611d3b81611a75565b8114611d4657600080fd5b50565b600081359050611d5881611d32565b92915050565b60008060408385031215611d7557611d746119e6565b5b6000611d8385828601611c33565b9250506020611d9485828601611d49565b9150509250929050565b600080fd5b600080fd5b7f4e487b7100000000000000000000000000000000000000000000000000000000600052604160045260246000fd5b611de082611af1565b810181811067ffffffffffffffff82111715611dff57611dfe611da8565b5b80604052505050565b6000611e126119dc565b9050611e1e8282611dd7565b919050565b600067ffffffffffffffff821115611e3e57611e3d611da8565b5b611e4782611af1565b9050602081019050919050565b82818337600083830152505050565b6000611e76611e7184611e23565b611e08565b905082815260208101848484011115611e9257611e91611da3565b5b611e9d848285611e54565b509392505050565b600082601f830112611eba57611eb9611d9e565b5b8135611eca848260208601611e63565b91505092915050565b60008060008060808587031215611eed57611eec6119e6565b5b6000611efb87828801611c33565b9450506020611f0c87828801611c33565b9350506040611f1d87828801611b7e565b925050606085013567ffffffffffffffff811115611f3e57611f3d6119eb565b5b611f4a87828801611ea5565b91505092959194509250565b600067ffffffffffffffff821115611f7157611f70611da8565b5b611f7a82611af1565b9050602081019050919050565b6000611f9a611f9584611f56565b611e08565b905082815260208101848484011115611fb657611fb5611da3565b5b611fc1848285611e54565b509392505050565b600082601f830112611fde57611fdd611d9e565b5b8135611fee848260208601611f87565b91505092915050565b60006020828403121561200d5761200c6119e6565b5b600082013567ffffffffffffffff81111561202b5761202a6119eb565b5b61203784828501611fc9565b91505092915050565b60008060408385031215612057576120566119e6565b5b600061206585828601611c33565b925050602061207685828601611c33565b9150509250929050565b7f4e487b7100000000000000000000000000000000000000000000000000000000600052602260045260246000fd5b600060028204905060018216806120c757607f821691505b6020821081036120da576120d9612080565b5b50919050565b7f4552433732313a20617070726f76616c20746f2063757272656e74206f776e6560008201527f7200000000000000000000000000000000000000000000000000000000000000602082015250565b600061213c602183611ab6565b9150612147826120e0565b604082019050919050565b6000602082019050818103600083015261216b8161212f565b9050919050565b7f4552433732313a20617070726f76652063616c6c6572206973206e6f7420746f60008201527f6b656e206f776e6572206f7220617070726f76656420666f7220616c6c000000602082015250565b60006121ce603d83611ab6565b91506121d982612172565b604082019050919050565b600060208201905081810360008301526121fd816121c1565b9050919050565b7f4552433732313a2063616c6c6572206973206e6f7420746f6b656e206f776e6560008201527f72206f7220617070726f76656400000000000000000000000000000000000000602082015250565b6000612260602d83611ab6565b915061226b82612204565b604082019050919050565b6000602082019050818103600083015261228f81612253565b9050919050565b7f4552433732313a20696e76616c696420746f6b656e2049440000000000000000600082015250565b60006122cc601883611ab6565b91506122d782612296565b602082019050919050565b600060208201905081810360008301526122fb816122bf565b9050919050565b7f4552433732313a2061646472657373207a65726f206973206e6f74206120766160008201527f6c6964206f776e65720000000000000000000000000000000000000000000000602082015250565b600061235e602983611ab6565b915061236982612302565b604082019050919050565b6000602082019050818103600083015261238d81612351565b9050919050565b600081905092915050565b60006123aa82611aab565b6123b48185612394565b93506123c4818560208601611ac7565b80840191505092915050565b60006123dc828561239f565b91506123e8828461239f565b91508190509392505050565b7f4e487b7100000000000000000000000000000000000000000000000000000000600052601160045260246000fd5b600061242e82611b5d565b915061243983611b5d565b9250828201905080821115612451576124506123f4565b5b92915050565b7f4552433732313a207472616e736665722066726f6d20696e636f72726563742060008201527f6f776e6572000000000000000000000000000000000000000000000000000000602082015250565b60006124b3602583611ab6565b91506124be82612457565b604082019050919050565b600060208201905081810360008301526124e2816124a6565b9050919050565b7f4552433732313a207472616e7366657220746f20746865207a65726f2061646460008201527f7265737300000000000000000000000000000000000000000000000000000000602082015250565b6000612545602483611ab6565b9150612550826124e9565b604082019050919050565b6000602082019050818103600083015261257481612538565b9050919050565b7f4552433732313a20617070726f766520746f2063616c6c657200000000000000600082015250565b60006125b1601983611ab6565b91506125bc8261257b565b602082019050919050565b600060208201905081810360008301526125e0816125a4565b9050919050565b7f4552433732313a207472616e7366657220746f206e6f6e20455243373231526560008201527f63656976657220696d706c656d656e7465720000000000000000000000000000602082015250565b6000612643603283611ab6565b915061264e826125e7565b604082019050919050565b6000602082019050818103600083015261267281612636565b9050919050565b7f45524337323155524953746f726167653a2055524920736574206f66206e6f6e60008201527f6578697374656e7420746f6b656e000000000000000000000000000000000000602082015250565b60006126d5602e83611ab6565b91506126e082612679565b604082019050919050565b60006020820190508181036000830152612704816126c8565b9050919050565b60008190508160005260206000209050919050565b60006020601f8301049050919050565b600082821b905092915050565b60006008830261276d7fffffffffffffffffffffffffffffffffffffffffffffffffffffffffffffffff82612730565b6127778683612730565b95508019841693508086168417925050509392505050565b6000819050919050565b60006127b46127af6127aa84611b5d565b61278f565b611b5d565b9050919050565b6000819050919050565b6127ce83612799565b6127e26127da826127bb565b84845461273d565b825550505050565b600090565b6127f76127ea565b6128028184846127c5565b505050565b5b818110156128265761281b6000826127ef565b600181019050612808565b5050565b601f82111561286b5761283c8161270b565b61284584612720565b81016020851015612854578190505b61286861286085612720565b830182612807565b50505b505050565b600082821c905092915050565b600061288e60001984600802612870565b1980831691505092915050565b60006128a7838361287d565b9150826002028217905092915050565b6128c082611aab565b67ffffffffffffffff8111156128d9576128d8611da8565b5b6128e382546120af565b6128ee82828561282a565b600060209050601f831160018114612921576000841561290f578287015190505b612919858261289b565b865550612981565b601f19841661292f8661270b565b60005b8281101561295757848901518255600182019150602085019450602081019050612932565b868310156129745784890151612970601f89168261287d565b8355505b6001600288020188555050505b505050505050565b600081519050919050565b600082825260208201905092915050565b60006129b082612989565b6129ba8185612994565b93506129ca818560208601611ac7565b6129d381611af1565b840191505092915050565b60006080820190506129f36000830187611bf2565b612a006020830186611bf2565b612a0d6040830185611d08565b8181036060830152612a1f81846129a5565b905095945050505050565b600081519050612a3981611a1c565b92915050565b600060208284031215612a5557612a546119e6565b5b6000612a6384828501612a2a565b91505092915050565b7f4e487b7100000000000000000000000000000000000000000000000000000000600052601260045260246000fd5b7f4552433732313a206d696e7420746f20746865207a65726f2061646472657373600082015250565b6000612ad1602083611ab6565b9150612adc82612a9b565b602082019050919050565b60006020820190508181036000830152612b0081612ac4565b9050919050565b7f4552433732313a20746f6b656e20616c7265616479206d696e74656400000000600082015250565b6000612b3d601c83611ab6565b9150612b4882612b07565b602082019050919050565b60006020820190508181036000830152612b6c81612b30565b905091905056fea2646970667358221220a5febc9d649411d9490f0db5b3aae434bb36739d1e9c9f84a6d5c39fe9052a0f64736f6c63430008120033",
  "linkReferences": {},
  "deployedLinkReferences": {}
}