{
  "_format": "hh-sol-artifact-1",
  "contractName": "transactioncheck",
  "sourceName": "contracts/transactioncheck.sol",
  "abi": [
    {
      "inputs": [
        {
          "internalType": "uint256",
          "name": "_UltimateDigitPhoneNumber",
          "type": "uint256"
        }
      ],
      "name": "SettingUniqueId",
      "outputs": [],
      "stateMutability": "nonpayable",
      "type": "function"
    },
    {
      "inputs": [
        {
          "internalType": "uint256",
          "name": "_UltimateDigitPhoneNumber",
          "type": "uint256"
        }
      ],
      "name": "checkAccount",
      "outputs": [
        {
          "internalType": "address",
          "name": "",
          "type": "address"
        }
      ],
      "stateMutability": "view",
      "type": "function"
    }
  ],
  "bytecode": "0x608060405234801561001057600080fd5b50610419806100206000396000f3fe608060405234801561001057600080fd5b50600436106100365760003560e01c806307b60fa21461003b57806317f5095d1461006b575b600080fd5b6100556004803603810190610050919061024b565b610087565b60405161006291906102b9565b60405180910390f35b6100856004803603810190610080919061024b565b61012a565b005b6000600115156001600084815260200190815260200160002060009054906101000a900460ff161515146100f0576040517f08c379a00000000000000000000000000000000000000000000000000000000081526004016100e790610357565b60405180910390fd5b60008083815260200190815260200160002060009054906101000a900473ffffffffffffffffffffffffffffffffffffffff169050919050565b600015156001600083815260200190815260200160002060009054906101000a900460ff16151514610191576040517f08c379a0000000000000000000000000000000000000000000000000000000008152600401610188906103c3565b60405180910390fd5b3360008083815260200190815260200160002060006101000a81548173ffffffffffffffffffffffffffffffffffffffff021916908373ffffffffffffffffffffffffffffffffffffffff160217905550600180600083815260200190815260200160002060006101000a81548160ff02191690831515021790555050565b600080fd5b6000819050919050565b61022881610215565b811461023357600080fd5b50565b6000813590506102458161021f565b92915050565b60006020828403121561026157610260610210565b5b600061026f84828501610236565b91505092915050565b600073ffffffffffffffffffffffffffffffffffffffff82169050919050565b60006102a382610278565b9050919050565b6102b381610298565b82525050565b60006020820190506102ce60008301846102aa565b92915050565b600082825260208201905092915050565b7f50686f6e65206e756d626572206e6f7420636f6e6e656374656420746f20616e60008201527f79206163636f756e740000000000000000000000000000000000000000000000602082015250565b60006103416029836102d4565b915061034c826102e5565b604082019050919050565b6000602082019050818103600083015261037081610334565b9050919050565b7f5468652070686f6e65206e756d62657220616c72656164792065786973747300600082015250565b60006103ad601f836102d4565b91506103b882610377565b602082019050919050565b600060208201905081810360008301526103dc816103a0565b905091905056fea264697066735822122075e67222d9e66a76ff354a46264891b36ceab9db248cf6d7ad7724c02374ce2e64736f6c63430008120033",
  "linkReferences": {},
  "deployedLinkReferences": {}
}